{
  "contractName": "Election",
  "abi": [
    {
      "inputs": [
        {
          "internalType": "address",
          "name": "authority",
          "type": "address"
        },
        {
          "internalType": "string",
          "name": "name",
          "type": "string"
        },
        {
          "internalType": "string",
          "name": "description",
          "type": "string"
        }
      ],
      "stateMutability": "nonpayable",
      "type": "constructor"
    },
    {
      "inputs": [
        {
          "internalType": "uint8",
          "name": "",
          "type": "uint8"
        }
      ],
      "name": "candidates",
      "outputs": [
        {
          "internalType": "string",
          "name": "candidate_name",
          "type": "string"
        },
        {
          "internalType": "string",
          "name": "candidate_description",
          "type": "string"
        },
        {
          "internalType": "string",
          "name": "imgHash",
          "type": "string"
        },
        {
          "internalType": "uint8",
          "name": "voteCount",
          "type": "uint8"
        },
        {
          "internalType": "string",
          "name": "email",
          "type": "string"
        }
      ],
      "stateMutability": "view",
      "type": "function",
      "constant": true
    },
    {
      "inputs": [
        {
          "internalType": "string",
          "name": "candidate_name",
          "type": "string"
        },
        {
          "internalType": "string",
          "name": "candidate_description",
          "type": "string"
        },
        {
          "internalType": "string",
          "name": "imgHash",
          "type": "string"
        },
        {
          "internalType": "string",
          "name": "email",
          "type": "string"
        }
      ],
      "name": "addCandidate",
      "outputs": [],
      "stateMutability": "nonpayable",
      "type": "function"
    },
    {
      "inputs": [
        {
          "internalType": "uint8",
          "name": "candidateID",
          "type": "uint8"
        },
        {
          "internalType": "string",
          "name": "e",
          "type": "string"
        }
      ],
      "name": "vote",
      "outputs": [],
      "stateMutability": "nonpayable",
      "type": "function"
    },
    {
      "inputs": [],
      "name": "getNumOfCandidates",
      "outputs": [
        {
          "internalType": "uint8",
          "name": "",
          "type": "uint8"
        }
      ],
      "stateMutability": "view",
      "type": "function",
      "constant": true
    },
    {
      "inputs": [],
      "name": "getNumOfVoters",
      "outputs": [
        {
          "internalType": "uint8",
          "name": "",
          "type": "uint8"
        }
      ],
      "stateMutability": "view",
      "type": "function",
      "constant": true
    },
    {
      "inputs": [
        {
          "internalType": "uint8",
          "name": "candidateID",
          "type": "uint8"
        }
      ],
      "name": "getCandidate",
      "outputs": [
        {
          "internalType": "string",
          "name": "",
          "type": "string"
        },
        {
          "internalType": "string",
          "name": "",
          "type": "string"
        },
        {
          "internalType": "string",
          "name": "",
          "type": "string"
        },
        {
          "internalType": "uint8",
          "name": "",
          "type": "uint8"
        },
        {
          "internalType": "string",
          "name": "",
          "type": "string"
        }
      ],
      "stateMutability": "view",
      "type": "function",
      "constant": true
    },
    {
      "inputs": [],
      "name": "winnerCandidate",
      "outputs": [
        {
          "internalType": "uint8",
          "name": "",
          "type": "uint8"
        }
      ],
      "stateMutability": "view",
      "type": "function",
      "constant": true
    },
    {
      "inputs": [],
      "name": "getElectionDetails",
      "outputs": [
        {
          "internalType": "string",
          "name": "",
          "type": "string"
        },
        {
          "internalType": "string",
          "name": "",
          "type": "string"
        }
      ],
      "stateMutability": "view",
      "type": "function",
      "constant": true
    }
  ],
  "bytecode": "0x60806040523480156200001157600080fd5b50604051620018653803806200186583398181016040528101906200003791906200037f565b826000806101000a81548173ffffffffffffffffffffffffffffffffffffffff021916908373ffffffffffffffffffffffffffffffffffffffff16021790555081600190805190602001906200008f929190620000cd565b508060029080519060200190620000a8929190620000cd565b506001600360006101000a81548160ff0219169083151502179055505050506200047e565b828054620000db9062000448565b90600052602060002090601f016020900481019282620000ff57600085556200014b565b82601f106200011a57805160ff19168380011785556200014b565b828001600101855582156200014b579182015b828111156200014a5782518255916020019190600101906200012d565b5b5090506200015a91906200015e565b5090565b5b80821115620001795760008160009055506001016200015f565b5090565b6000604051905090565b600080fd5b600080fd5b600073ffffffffffffffffffffffffffffffffffffffff82169050919050565b6000620001be8262000191565b9050919050565b620001d081620001b1565b8114620001dc57600080fd5b50565b600081519050620001f081620001c5565b92915050565b600080fd5b600080fd5b6000601f19601f8301169050919050565b7f4e487b7100000000000000000000000000000000000000000000000000000000600052604160045260246000fd5b6200024b8262000200565b810181811067ffffffffffffffff821117156200026d576200026c62000211565b5b80604052505050565b6000620002826200017d565b905062000290828262000240565b919050565b600067ffffffffffffffff821115620002b357620002b262000211565b5b620002be8262000200565b9050602081019050919050565b60005b83811015620002eb578082015181840152602081019050620002ce565b83811115620002fb576000848401525b50505050565b600062000318620003128462000295565b62000276565b905082815260208101848484011115620003375762000336620001fb565b5b62000344848285620002cb565b509392505050565b600082601f830112620003645762000363620001f6565b5b81516200037684826020860162000301565b91505092915050565b6000806000606084860312156200039b576200039a62000187565b5b6000620003ab86828701620001df565b935050602084015167ffffffffffffffff811115620003cf57620003ce6200018c565b5b620003dd868287016200034c565b925050604084015167ffffffffffffffff8111156200040157620004006200018c565b5b6200040f868287016200034c565b9150509250925092565b7f4e487b7100000000000000000000000000000000000000000000000000000000600052602260045260246000fd5b600060028204905060018216806200046157607f821691505b6020821081141562000478576200047762000419565b5b50919050565b6113d7806200048e6000396000f3fe608060405234801561001057600080fd5b50600436106100885760003560e01c8063b224c40a1161005b578063b224c40a14610119578063cde9370f14610135578063e8685ba114610169578063ed836bc31461018757610088565b806342b03cc91461008d57806365fc783c146100a95780636d6277f4146100c7578063a15148d1146100fb575b600080fd5b6100a760048036038101906100a29190610ecb565b6101a6565b005b6100b1610352565b6040516100be9190610fbe565b60405180910390f35b6100e160048036038101906100dc9190611005565b610369565b6040516100f29594939291906110ba565b60405180910390f35b6101036105cc565b6040516101109190610fbe565b60405180910390f35b610133600480360381019061012e9190611129565b610730565b005b61014f600480360381019061014a9190611005565b6108aa565b6040516101609594939291906110ba565b60405180910390f35b610171610b90565b60405161017e9190610fbe565b60405180910390f35b61018f610ba7565b60405161019d929190611185565b60405180910390f35b60008054906101000a900473ffffffffffffffffffffffffffffffffffffffff1673ffffffffffffffffffffffffffffffffffffffff163373ffffffffffffffffffffffffffffffffffffffff1614610234576040517f08c379a000000000000000000000000000000000000000000000000000000000815260040161022b90611208565b60405180910390fd5b60006006600081819054906101000a900460ff168092919061025590611257565b91906101000a81548160ff021916908360ff16021790555090506040518060a00160405280868152602001858152602001848152602001600060ff16815260200183815250600460008360ff1660ff16815260200190815260200160002060008201518160000190805190602001906102cf929190610cce565b5060208201518160010190805190602001906102ec929190610cce565b506040820151816002019080519060200190610309929190610cce565b5060608201518160030160006101000a81548160ff021916908360ff1602179055506080820151816004019080519060200190610347929190610cce565b509050505050505050565b6000600660019054906101000a900460ff16905090565b600460205280600052604060002060009150905080600001805461038c906112b0565b80601f01602080910402602001604051908101604052809291908181526020018280546103b8906112b0565b80156104055780601f106103da57610100808354040283529160200191610405565b820191906000526020600020905b8154815290600101906020018083116103e857829003601f168201915b50505050509080600101805461041a906112b0565b80601f0160208091040260200160405190810160405280929190818152602001828054610446906112b0565b80156104935780601f1061046857610100808354040283529160200191610493565b820191906000526020600020905b81548152906001019060200180831161047657829003601f168201915b5050505050908060020180546104a8906112b0565b80601f01602080910402602001604051908101604052809291908181526020018280546104d4906112b0565b80156105215780601f106104f657610100808354040283529160200191610521565b820191906000526020600020905b81548152906001019060200180831161050457829003601f168201915b5050505050908060030160009054906101000a900460ff1690806004018054610549906112b0565b80601f0160208091040260200160405190810160405280929190818152602001828054610575906112b0565b80156105c25780601f10610597576101008083540402835291602001916105c2565b820191906000526020600020905b8154815290600101906020018083116105a557829003601f168201915b5050505050905085565b60008060009054906101000a900473ffffffffffffffffffffffffffffffffffffffff1673ffffffffffffffffffffffffffffffffffffffff163373ffffffffffffffffffffffffffffffffffffffff161461065d576040517f08c379a000000000000000000000000000000000000000000000000000000000815260040161065490611208565b60405180910390fd5b6000600460008060ff16815260200190815260200160002060030160009054906101000a900460ff169050600080600190505b600660009054906101000a900460ff1660ff168160ff16101561072757600460008260ff1660ff16815260200190815260200160002060030160009054906101000a900460ff1660ff168360ff16101561071457600460008260ff1660ff16815260200190815260200160002060030160009054906101000a900460ff1692508091505b808061071f90611257565b915050610690565b50809250505090565b600581604051610740919061131e565b908152602001604051809103902060000160019054906101000a900460ff161561079f576040517f08c379a000000000000000000000000000000000000000000000000000000000815260040161079690611381565b60405180910390fd5b60405180604001604052808360ff168152602001600115158152506005826040516107ca919061131e565b908152602001604051809103902060008201518160000160006101000a81548160ff021916908360ff16021790555060208201518160000160016101000a81548160ff0219169083151502179055509050506006600181819054906101000a900460ff168092919061083b90611257565b91906101000a81548160ff021916908360ff16021790555050600460008360ff1660ff168152602001908152602001600020600301600081819054906101000a900460ff168092919061088d90611257565b91906101000a81548160ff021916908360ff160217905550505050565b606080606060006060600460008760ff1660ff168152602001908152602001600020600001600460008860ff1660ff168152602001908152602001600020600101600460008960ff1660ff168152602001908152602001600020600201600460008a60ff1660ff16815260200190815260200160002060030160009054906101000a900460ff16600460008b60ff1660ff168152602001908152602001600020600401848054610959906112b0565b80601f0160208091040260200160405190810160405280929190818152602001828054610985906112b0565b80156109d25780601f106109a7576101008083540402835291602001916109d2565b820191906000526020600020905b8154815290600101906020018083116109b557829003601f168201915b505050505094508380546109e5906112b0565b80601f0160208091040260200160405190810160405280929190818152602001828054610a11906112b0565b8015610a5e5780601f10610a3357610100808354040283529160200191610a5e565b820191906000526020600020905b815481529060010190602001808311610a4157829003601f168201915b50505050509350828054610a71906112b0565b80601f0160208091040260200160405190810160405280929190818152602001828054610a9d906112b0565b8015610aea5780601f10610abf57610100808354040283529160200191610aea565b820191906000526020600020905b815481529060010190602001808311610acd57829003601f168201915b50505050509250808054610afd906112b0565b80601f0160208091040260200160405190810160405280929190818152602001828054610b29906112b0565b8015610b765780601f10610b4b57610100808354040283529160200191610b76565b820191906000526020600020905b815481529060010190602001808311610b5957829003601f168201915b505050505090509450945094509450945091939590929450565b6000600660009054906101000a900460ff16905090565b60608060016002818054610bba906112b0565b80601f0160208091040260200160405190810160405280929190818152602001828054610be6906112b0565b8015610c335780601f10610c0857610100808354040283529160200191610c33565b820191906000526020600020905b815481529060010190602001808311610c1657829003601f168201915b50505050509150808054610c46906112b0565b80601f0160208091040260200160405190810160405280929190818152602001828054610c72906112b0565b8015610cbf5780601f10610c9457610100808354040283529160200191610cbf565b820191906000526020600020905b815481529060010190602001808311610ca257829003601f168201915b50505050509050915091509091565b828054610cda906112b0565b90600052602060002090601f016020900481019282610cfc5760008555610d43565b82601f10610d1557805160ff1916838001178555610d43565b82800160010185558215610d43579182015b82811115610d42578251825591602001919060010190610d27565b5b509050610d509190610d54565b5090565b5b80821115610d6d576000816000905550600101610d55565b5090565b6000604051905090565b600080fd5b600080fd5b600080fd5b600080fd5b6000601f19601f8301169050919050565b7f4e487b7100000000000000000000000000000000000000000000000000000000600052604160045260246000fd5b610dd882610d8f565b810181811067ffffffffffffffff82111715610df757610df6610da0565b5b80604052505050565b6000610e0a610d71565b9050610e168282610dcf565b919050565b600067ffffffffffffffff821115610e3657610e35610da0565b5b610e3f82610d8f565b9050602081019050919050565b82818337600083830152505050565b6000610e6e610e6984610e1b565b610e00565b905082815260208101848484011115610e8a57610e89610d8a565b5b610e95848285610e4c565b509392505050565b600082601f830112610eb257610eb1610d85565b5b8135610ec2848260208601610e5b565b91505092915050565b60008060008060808587031215610ee557610ee4610d7b565b5b600085013567ffffffffffffffff811115610f0357610f02610d80565b5b610f0f87828801610e9d565b945050602085013567ffffffffffffffff811115610f3057610f2f610d80565b5b610f3c87828801610e9d565b935050604085013567ffffffffffffffff811115610f5d57610f5c610d80565b5b610f6987828801610e9d565b925050606085013567ffffffffffffffff811115610f8a57610f89610d80565b5b610f9687828801610e9d565b91505092959194509250565b600060ff82169050919050565b610fb881610fa2565b82525050565b6000602082019050610fd36000830184610faf565b92915050565b610fe281610fa2565b8114610fed57600080fd5b50565b600081359050610fff81610fd9565b92915050565b60006020828403121561101b5761101a610d7b565b5b600061102984828501610ff0565b91505092915050565b600081519050919050565b600082825260208201905092915050565b60005b8381101561106c578082015181840152602081019050611051565b8381111561107b576000848401525b50505050565b600061108c82611032565b611096818561103d565b93506110a681856020860161104e565b6110af81610d8f565b840191505092915050565b600060a08201905081810360008301526110d48188611081565b905081810360208301526110e88187611081565b905081810360408301526110fc8186611081565b905061110b6060830185610faf565b818103608083015261111d8184611081565b90509695505050505050565b600080604083850312156111405761113f610d7b565b5b600061114e85828601610ff0565b925050602083013567ffffffffffffffff81111561116f5761116e610d80565b5b61117b85828601610e9d565b9150509250929050565b6000604082019050818103600083015261119f8185611081565b905081810360208301526111b38184611081565b90509392505050565b7f4572726f723a204163636573732044656e6965642e0000000000000000000000600082015250565b60006111f260158361103d565b91506111fd826111bc565b602082019050919050565b60006020820190508181036000830152611221816111e5565b9050919050565b7f4e487b7100000000000000000000000000000000000000000000000000000000600052601160045260246000fd5b600061126282610fa2565b915060ff82141561127657611275611228565b5b600182019050919050565b7f4e487b7100000000000000000000000000000000000000000000000000000000600052602260045260246000fd5b600060028204905060018216806112c857607f821691505b602082108114156112dc576112db611281565b5b50919050565b600081905092915050565b60006112f882611032565b61130281856112e2565b935061131281856020860161104e565b80840191505092915050565b600061132a82846112ed565b915081905092915050565b7f4572726f723a596f752063616e6e6f7420646f75626c6520766f746500000000600082015250565b600061136b601c8361103d565b915061137682611335565b602082019050919050565b6000602082019050818103600083015261139a8161135e565b905091905056fea2646970667358221220ccdfedfe010746dd83494a1fb64b5c0abda939f54b99032ba0526434091a072564736f6c634300080b0033",
  "immutableReferences": {},
  "source": "// SPDX-License-Identifier: MIT\npragma solidity ^0.8.11;\n\ncontract ElectionFact {\n    \n    struct ElectionDet {\n        address deployedAddress;\n        string el_n;\n        string el_d;\n    }\n    \n    mapping(string=>ElectionDet) companyEmail;\n    \n    function createElection(string memory email,string memory election_name, string memory election_description) public{\n        address newElection = address(new Election(msg.sender , election_name, election_description));\n        \n        companyEmail[email].deployedAddress = newElection;\n        companyEmail[email].el_n = election_name;\n        companyEmail[email].el_d = election_description;\n    }\n    \n    function getDeployedElection(string memory email) public view returns (address,string memory ,string memory) {\n        address val =  companyEmail[email].deployedAddress;\n        if(val == address(0)) \n            return (address(0),\"\",\"Create an election.\");\n        else\n            return (companyEmail[email].deployedAddress,companyEmail[email].el_n,companyEmail[email].el_d);\n    }\n}\n\ncontract Election {\n\n    //election_authority's address\n    address election_authority;\n    string election_name;\n    string election_description;\n    bool status;\n    \n    //election_authority's address taken when it deploys the contract\n    constructor(address authority , string memory name, string memory description) {\n        election_authority = authority;\n        election_name = name;\n        election_description = description;\n        status = true;\n    }\n\n    //Only election_authority can call this function\n    modifier owner() {\n        require(msg.sender == election_authority, \"Error: Access Denied.\");\n        _;\n    }\n    //candidate election_description\n\n    struct Candidate {\n        string candidate_name;\n        string candidate_description;\n        string imgHash;\n        uint8 voteCount;\n        string email;\n    }\n\n    //candidate mapping\n\n    mapping(uint8=>Candidate) public candidates;\n\n    //voter election_description\n\n    struct Voter {\n        uint8 candidate_id_voted;\n        bool voted;\n    }\n\n    //voter mapping\n\n    mapping(string=>Voter) voters;\n\n    //counter of number of candidates\n\n    uint8 numCandidates;\n\n    //counter of number of voters\n\n    uint8 numVoters;\n\n    //function to add candidate to mapping\n\n    function addCandidate(string memory candidate_name, string memory candidate_description, string memory imgHash,string memory email) public owner {\n        uint8 candidateID = numCandidates++; //assign id of the candidate\n        candidates[candidateID] = Candidate(candidate_name,candidate_description,imgHash,0,email); //add the values to the mapping\n    }\n    //function to vote and check for double voting\n\n    function vote(uint8 candidateID,string memory e) public {\n\n        //if false the vote will be registered\n        require(!voters[e].voted, \"Error:You cannot double vote\");\n        \n        voters[e] = Voter (candidateID,true); //add the values to the mapping\n        numVoters++;\n        candidates[candidateID].voteCount++; //increment vote counter of candidate\n        \n    }\n\n    //function to get count of candidates\n\n    function getNumOfCandidates() public view returns(uint8) {\n        return numCandidates;\n    }\n\n    //function to get count of voters\n\n    function getNumOfVoters() public view returns(uint8) {\n        return numVoters;\n    }\n\n    //function to get candidate information\n\n    function getCandidate(uint8 candidateID) public view returns (string memory, string memory, string memory, uint8,string memory) {\n        return (candidates[candidateID].candidate_name, candidates[candidateID].candidate_description, candidates[candidateID].imgHash, candidates[candidateID].voteCount, candidates[candidateID].email);\n    } \n\n    //function to return winner candidate information\n\n    function winnerCandidate() public view owner returns (uint8) {\n        uint8 largestVotes = candidates[0].voteCount;\n        uint8 candidateID;\n        for(uint8 i = 1;i<numCandidates;i++) {\n            if(largestVotes < candidates[i].voteCount) {\n                largestVotes = candidates[i].voteCount;\n                candidateID = i;\n            }\n        }\n        return (candidateID);\n    }\n    \n    function getElectionDetails() public view returns(string memory, string memory) {\n        return (election_name,election_description);    \n    }\n}",
  "sourcePath": "E:\\Projects\\Fed\\Frontend\\src\\Ethereum\\contracts\\Election.sol",
  "compiler": {
    "name": "solc",
    "version": "0.8.11+commit.d7f03943.Emscripten.clang"
  },
  "schemaVersion": "3.4.4",
  "updatedAt": "2022-02-14T12:21:00.981Z",
  "networkType": "ethereum",
  "devdoc": {
    "kind": "dev",
    "methods": {},
    "version": 1
  },
  "userdoc": {
    "kind": "user",
    "methods": {},
    "version": 1
  }
}